{
  "contractName": "dConfess",
  "abi": [
    {
      "inputs": [
        {
          "internalType": "string",
          "name": "_hash",
          "type": "string"
        }
      ],
      "name": "set",
      "outputs": [],
      "stateMutability": "nonpayable",
      "type": "function"
    },
    {
      "inputs": [],
      "name": "getAddress",
      "outputs": [
        {
          "internalType": "address",
          "name": "",
          "type": "address"
        }
      ],
      "stateMutability": "view",
      "type": "function",
      "constant": true
    },
    {
      "inputs": [
        {
          "internalType": "address",
          "name": "_address",
          "type": "address"
        }
      ],
      "name": "getAddressCount",
      "outputs": [
        {
          "internalType": "uint256",
          "name": "",
          "type": "uint256"
        }
      ],
      "stateMutability": "view",
      "type": "function",
      "constant": true
    },
    {
      "inputs": [
        {
          "internalType": "address",
          "name": "_address",
          "type": "address"
        },
        {
          "internalType": "uint256",
          "name": "i",
          "type": "uint256"
        }
      ],
      "name": "getConfession",
      "outputs": [
        {
          "internalType": "string",
          "name": "",
          "type": "string"
        }
      ],
      "stateMutability": "view",
      "type": "function",
      "constant": true
    }
  ],
  "bytecode": "0x608060405234801561001057600080fd5b50610697806100206000396000f3fe608060405234801561001057600080fd5b5060043610610068577c0100000000000000000000000000000000000000000000000000000000600035046338cc4831811461006d5780634ed3885e146100805780639a4e6698146100955780639ef4d700146100b6575b600080fd5b6040513381526020015b60405180910390f35b61009361008e3660046104e3565b6100d6565b005b6100a86100a3366004610499565b61027b565b604051908152602001610077565b6100c96100c43660046104ba565b61030a565b604051610077919061058d565b6000805b6000548110156101485733600160a060020a0316600082815481106101125760e060020a634e487b7102600052603260045260246000fd5b600091825260209091200154600160a060020a031614156101365760019150610148565b806101408161061e565b9150506100da565b508061019b57600080546001810182559080527f290decd9548b62a8d60345a988386fc84ba6bc95484008f6362f93160ef3e56301805473ffffffffffffffffffffffffffffffffffffffff1916331790555b60005b6000548110156102765733600160a060020a0316600082815481106101d65760e060020a634e487b7102600052603260045260246000fd5b600091825260209091200154600160a060020a0316141561026457600160008083815481106102185760e060020a634e487b7102600052603260045260246000fd5b6000918252602080832090910154600160a060020a0316835282810193909352604090910181208054600181018255908252908290208551610262939190920191908601906103e4565b505b8061026e8161061e565b91505061019e565b505050565b6000805b6000548110156103015782600160a060020a0316600082815481106102b75760e060020a634e487b7102600052603260045260246000fd5b600091825260209091200154600160a060020a031614156102ef575050600160a060020a031660009081526001602052604090205490565b806102f98161061e565b91505061027f565b50600092915050565b600160a060020a0382166000908152600160205260409020805460609190839081106103495760e060020a634e487b7102600052603260045260246000fd5b90600052602060002001805461035e906105e0565b80601f016020809104026020016040519081016040528092919081815260200182805461038a906105e0565b80156103d75780601f106103ac576101008083540402835291602001916103d7565b820191906000526020600020905b8154815290600101906020018083116103ba57829003601f168201915b5050505050905092915050565b8280546103f0906105e0565b90600052602060002090601f0160209004810192826104125760008555610458565b82601f1061042b57805160ff1916838001178555610458565b82800160010185558215610458579182015b8281111561045857825182559160200191906001019061043d565b50610464929150610468565b5090565b5b808211156104645760008155600101610469565b8035600160a060020a038116811461049457600080fd5b919050565b6000602082840312156104aa578081fd5b6104b38261047d565b9392505050565b600080604083850312156104cc578081fd5b6104d58361047d565b946020939093013593505050565b6000602082840312156104f4578081fd5b813567ffffffffffffffff8082111561050b578283fd5b818401915084601f83011261051e578283fd5b81358181111561053057610530610648565b604051601f8201601f19908116603f0116810190838211818310171561055857610558610648565b81604052828152876020848701011115610570578586fd5b826020860160208301379182016020019490945295945050505050565b6000602080835283518082850152825b818110156105b95785810183015185820160400152820161059d565b818111156105ca5783604083870101525b50601f01601f1916929092016040019392505050565b6002810460018216806105f457607f821691505b602082108114156106185760e060020a634e487b7102600052602260045260246000fd5b50919050565b60006000198214156106415760e060020a634e487b710281526011600452602481fd5b5060010190565b60e060020a634e487b7102600052604160045260246000fdfea2646970667358221220069b0abc6abd8147c89ec5e15bc3cf17a434d7b91c3e5e9fff02bbafc4d7c15464736f6c63430008040033",
  "immutableReferences": {},
  "source": "// SPDX-License-Identifier: Apache-2.0\npragma solidity 0.8.4;\n \ncontract dConfess \n{\n\n    address[] private confessors;\n    mapping (address => string[] ) private confessions;\n     \n     \n    // event confessionRecorded(address indexed key,bytes32 _digest,uint8 _hashFunction,uint8 _size);\n    \n    function set(string memory _hash) public\n    {\n        bool oldconfessor = false;\n        for(uint i = 0;i < confessors.length;i++)\n        {\n            if(confessors[i]==msg.sender)\n            {\n                oldconfessor = true;\n                break;\n            }\n        }\n        if(!oldconfessor)\n        {\n            confessors.push(msg.sender);\n        }\n        \n        for(uint i = 0;i < confessors.length;i++)\n        {\n            if(confessors[i]==msg.sender)\n            {\n                confessions[confessors[i]].push(_hash);\n            }\n        }\n    }\n    \n    function getAddress() public view returns(address )\n    {\n       return msg.sender;\n    }\n    function getAddressCount(address _address) public view returns(uint)\n    {\n        for(uint i=0;i<confessors.length;i++)\n        {\n            if(confessors[i]==_address)\n            {\n                return confessions[_address].length;\n            }\n        }\n        return 0;\n    }\n    function getConfession(address _address,uint i) public view returns(string memory)\n    {\n       return confessions[_address][i];\n    }\n}",
  "sourcePath": "/home/rishabh/Documents/GitHub/dConfess_final/contracts/dConfess.sol",
  "compiler": {
    "name": "solc",
    "version": "0.8.4+commit.c7e474f2.Emscripten.clang"
  },
  "schemaVersion": "3.4.1",
  "updatedAt": "2021-09-09T20:16:18.975Z",
  "networkType": "ethereum",
  "devdoc": {
    "kind": "dev",
    "methods": {},
    "version": 1
  },
  "userdoc": {
    "kind": "user",
    "methods": {},
    "version": 1
  }
}